:020000040800F2
:1000000088090020CD0100082D30000825300008A7
:100010002930000841030008853B0008000000006B
:100020000000000000000000000000003530000863
:100030004503000800000000313000088D3600083C
:10004000E7010008E7010008E7010008E7010008F0
:10005000E7010008E7010008E7010008E7010008E0
:10006000E7010008E7010008E7010008E7010008D0
:10007000E7010008E7010008E7010008E7010008C0
:10008000E7010008E7010008E7010008E7010008B0
:10009000E7010008E7010008E7010008E7010008A0
:1000A000E7010008E7010008E7010008E701000890
:1000B000E7010008E7010008E7010008E701000880
:1000C000E7010008E7010008E7010008E701000870
:1000D000E7010008E7010008E7010008E701000860
:1000E00049030008E7010008E7010008E7010008EC
:1000F000E7010008E7010008E7010008E701000840
:10010000E7010008E7010008E7010008E70100082F
:10011000E7010008E701000895360008493A0008A1
:10012000E7010008E7010008E7010008E70100080F
:1001300000F002F800F03AF80AA090E8000C8244BF
:100140008344AAF10107DA4501D100F02FF8AFF29C
:10015000090EBAE80F0013F0010F18BFFB1A43F0A5
:10016000010318473C5A00005C5A0000103A24BFB3
:1001700078C878C1FAD8520724BF30C830C144BF0C
:1001800004680C607047000000230024002500264E
:10019000103A28BF78C1FBD8520728BF30C148BFEA
:1001A0000B6070471FB51FBD10B510BD00F031F8D2
:1001B0001146FFF7F7FF03F06FFD00F04FF803B4AF
:1001C000FFF7F2FF03BC00F057F800000948804732
:1001D00009480047FEE7FEE7FEE7FEE7FEE7FEE729
:1001E000FEE7FEE7FEE7FEE704480549054A064B41
:1001F0007047000091360008310100088803002094
:100200008809002088050020880500207047704775
:100210007047754600F02CF8AE4605006946534617
:1002200020F00700854618B020B5FFF7DDFFBDE8D8
:1002300020404FF000064FF000074FF000084FF04D
:10024000000BAC46ACE8C009ACE8C009ACE8C0099A
:10025000ACE8C00921F007018D46704710B504468F
:10026000AFF300802046BDE81040FFF7A8BF0000B4
:10027000004870476000002001491820ABBEFEE72F
:100280002600020070470000B0B582B0044600208E
:10029000019021688A68D2074FD1886840F0010038
:1002A000886040F25400C2F2000000684DF683619D
:1002B000C4F21B31A0FB0101880C01900198A0B190
:1002C000019801380190019878B1019801380190A6
:1002D000019850B1019801380190019828B1019816
:1002E0000138019001980028EAD101F0FBFB216858
:1002F0008968C9071CD1054603E000BF8068C007B4
:100300001AD101F0EFFB411B20680329F6D3816865
:10031000C907F3D1A06A40F01000A062E06A40F083
:100320000100E062002084F82400012002B0B0BD8A
:10033000002002B0B0BD00BF002002B0B0BD000080
:10034000FEE70000704700004FF4805001F0ACBAA7
:100350002DE9F04FA9B040F2C814C2F2000404F134
:100360003C06304601F006F840F2C00740F2342562
:10037000C2F20007C2F20005A7F858002846012182
:1003800000F0C6FEA7F86200284600F0F3FFA7F8C9
:100390006C00304600F0EEFFA7F85A002846012115
:1003A00000F0B6FEA7F86400284600F0E3FFA7F8C7
:1003B0006E00304600F0DEFFA7F85C002846012101
:1003C00000F0A6FEA7F86600284600F0D3FFA7F8C5
:1003D0007000304600F0CEFFA7F85E0028460121ED
:1003E00000F096FEA7F86800284600F0C3FFA7F8C3
:1003F0007200304600F0BEFFA7F8600028460121D9
:1004000000F086FEA7F86A00284600F0B3FFB7F8B0
:100410005810B7F85A20B7F85C301144B7F85E208E
:100420001944B7F8603011444CF6CD421944CCF66B
:10043000CC42A1FB02139908A7F87400B983B7F85E
:100440006210B7F86430B7F866601944B7F86830DE
:100450003144B7F86A6019443144A1FB021399088A
:10046000F983B7F86C10B7F86E30B7F872601944BA
:10047000B7F8703080B2194431440844A0FB02013F
:10048000880838842846022100F042FE78842846F5
:10049000032100F03DFEB884284604213E4600F0CA
:1004A00037FE40F24C1AC2F2000ABAF87620BAF8C7
:1004B0007410279228911144BAF87220BAF870305B
:1004C00026921144BAF86E2025931944BAF86C307C
:1004D00023921144BAF86A2024931944BAF8683078
:1004E00022921144BAF8662021931944BAF8643074
:1004F00020921144BAF862201F931944BAF8603070
:100500001E921144BAF85E201D931944BAF85C306B
:1005100011441C921944B7F858201B9389B248F62D
:1005200089031144C8F688031A92A1FB0312199299
:10053000628B218B9C46E38A09920A910A44A18A24
:100540001A448E18628A0D91218A0C921644E2890F
:100550000F918D19A1890E9215446289119101EBB9
:1005600005092189109202EB0905E28813910D44D7
:10057000A18812921544628815910D442188154472
:1005800017910D44B7F86210ADB20D441891A5FB58
:100590000C51258FB4F836B00B93A38E0BEB0508E6
:1005A000B4F832C003EB0806B4F830806644B4F8FF
:1005B0002EE04644A78D7644B4F82A9016913E4426
:1005C000218D14924E44E28C04910E44A18C02922F
:1005D0001644628C0E4403921644228C07910192B9
:1005E000164440F2C002C2F20002D0842798E18B88
:1005F000AAF8780009980891A08328980E44AAF8D0
:1006000076000A98B2F86C10608326980691AAF8D2
:1006100074000B98B6B2208325980E44AAF8720095
:100620000D9848F68901E0822398C8F68801AAF857
:1006300070000C98A6FB0161A08224980591AAF88D
:100640006E000F98A4F83280608222989046AAF833
:100650006C000E981B99208221981A9AAAF86A00B9
:1006600011986587E0812098A4F838B0AAF868004E
:100670001098E386A0810498A4F834C060851F9880
:10068000A4F830E0AAF866001398E7856081029824
:10069000A4F82C9020851E98AAF85E10AAF8640091
:1006A0001298AAF85C202081079840F60005E084A3
:1006B0001D98C4F20105AAF862001598E08003981D
:1006C000A0841C98AAF860001498A0800198608407
:1006D0001798608008982084189820800698E083F6
:1006E00019980AF13204C008A8F834001698C00816
:1006F000A8F830000598C008A8F83200501AA8F8E9
:10070000360098F8121098F81000615C401A88F8CA
:10071000100005F500604FF4804101F0CFF9013879
:10072000B0FA80F098F8121098F810204009605440
:100730001044C3B288F81000481C4CF6CD41414328
:10074000C90C01EB8101A0EB410088F812000020E8
:10075000072B4FF0000238BF0122062B88BF012073
:1007600088F80D0005F5806020212E4601F0B4F9CF
:1007700040F25800C2F20000017898F817000129F1
:1007800008BF052804D0052834D029B0BDE8F08F73
:10079000B8F82010BAF83E0001EB8101A0F28A22DD
:1007A000B2EB910F06DD98F81400002501281BD14B
:1007B00001240DE0B8F82010A0F5FA7001EB8101DA
:1007C000B0EB910F12DA98F81400012560B90024FB
:1007D00030468021224601F07FF9002088F806503B
:1007E00088F80540A8F8380088F8145098F81700E1
:1007F0000528CAD198F8060001283DD1B8F81E0096
:100800000B2807D3B8F83800012807D8BAF83E30CB
:1008100024E000BF012440F6340320E0BAF83E2073
:10082000BAF842709AF84410BB1801FB002603EB9B
:10083000410505F59675AE420ED2B8F8286007EB73
:10084000960707F5167797423ABFC0F1020000FB02
:100850000133002302E000BFA2F5967300240AF1E1
:1008600048000021002200F089FFB8F8380088F81D
:1008700007400130A8F8380098F8050001287FF4F7
:1008800084AFB8F83800092806D80130A8F8380035
:1008900029B0BDE8F08F00BF9AF8400040F2AC21CB
:1008A000C2F200010B2832BF002000EB8000C0081C
:1008B0000968A8F82E008863002088F80500A8F8C9
:1008C000380029B0BDE8F08F2DE9F04F81B040F23B
:1008D000C810C2F2000000F13C042046012100F0E3
:1008E00017FC40F2C009C2F2000940F24C18B9F8F6
:1008F0001810C2F2000808F10A0222F8110020467E
:10090000022100F005FCB9F8181028F81100204663
:10091000032100F0FDFBB9F818204CF6CD41531C23
:10092000CCF6CC41A3FB0165B8F80A60B8F80C40DE
:10093000B8F80E7026443744B8F81060B8F8124082
:1009400037442744A7FB017608F1140727F8120063
:1009500025F0030000EB9500181AA9F81800B0085C
:10096000A9F82A00B8F81400B8F81620B8F818301A
:100970001044B8F81A201844B8F81C301044184431
:10098000A0FB01029008A9F82C00B8F80000B8F804
:100990000220B8F804301044B8F806201844B8F81B
:1009A000083010441844A0FB01018808A9F8280069
:1009B000B9F82800B0F5B77F1ED3B9F82800C008F1
:1009C00003F098FF4CF6CD4244F6CC43CCF6CC4233
:1009D000C4F2110303F018FD0023C3F6E0730022F4
:1009E00003F09CFF0023CCF23903002203F00CFD3E
:1009F00003F00CFF064600E0002640F6004AC4F271
:100A0000010A50464FF48061C42E28BFC42601F06D
:100A100055F899F80810B0FA80F0400901F0FB0190
:100A200041EA800089F8080050464FF4006101F067
:100A300045F899F80810B0FA80F0400901F0FD017E
:100A400041EA40000AF5806B89F8080058464021C9
:100A500001F034F899F80810B0FA80F0400921F05C
:100A600001010144C8B2072889F808101CD8DFE842
:100A700000F00523394F657B91A700BF45F2EE30AA
:100A800045F2E84145F2844C45F2BC3E45F2524500
:100A9000C0F60000C0F60001C0F6000CC0F6000E63
:100AA000C0F60005A0E000BF09F1440E9EE8035027
:100AB000D9F854509EE000BF45F25E2045F258310F
:100AC00045F2F42C45F22C2E45F2C225C0F600006A
:100AD000C0F60001C0F6000CC0F6000EC0F600051E
:100AE00082E000BF45F27E5045F2786145F2146C19
:100AF00045F24C5E45F2E255C0F60000C0F600013A
:100B0000C0F6000CC0F6000EC0F600056CE000BF99
:100B100045F20E7045F6080145F2A47C45F2DC6E04
:100B200045F27275C0F60000C0F60001C0F6000C78
:100B3000C0F6000EC0F6000556E000BF45F69E0068
:100B400045F6981145F6341C45F66C0E45F602152F
:100B5000C0F60000C0F60001C0F6000CC0F6000EA2
:100B6000C0F6000540E000BF45F62E2045F62831CE
:100B700045F6C42C45F6FC1E45F69225C0F600004D
:100B8000C0F60001C0F6000CC0F6000EC0F600056D
:100B90002AE000BF44F63E7045F2380144F6D47CAA
:100BA00044F60C7E44F6A275C0F60000C0F60001C3
:100BB000C0F6000CC0F6000EC0F6000514E000BF41
:100BC00045F2CE0045F2C81145F2641C45F29C0E78
:100BD00045F23215C0F60000C0F60001C0F6000C68
:100BE000C0F6000EC0F6000509F1440282E8035089
:100BF000C9F854500122B40802EB960230F8147080
:100C000030F8120006F00303C01B584300EB90704D
:100C100007EB9000A8F83C0031F8140031F81210EE
:100C2000091A594301EB917100EB9100A8F83E00BD
:100C30003CF814101EF80430A8F84210295D80B268
:100C400088F84410B9F82C20B9F82C4040F27241D1
:100C50008A422DD3009303F04DFE8246A4F27240E7
:100C60005F468B4603F02FFE054630460C4603F0E8
:100C700041FE41F27B4247F6E123C4F2AE72C3F675
:100C8000747303F04BFE0023C3F6D073002203F00D
:100C9000BBFB02460B462846214603F03FFE524668
:100CA00040F6004AC4F2010A5B46BB4634E000BF8E
:100CB000091B814236DA009303F01CFE5F4683462F
:100CC000B9F82C008A4640F27241081A03F0FBFD85
:100CD000054630460C4603F00DFE41F27B4247F6D6
:100CE000E123C4F2AE72CBF6747303F017FE002357
:100CF000CBF6D073002203F087FB02460B46284652
:100D0000214603F00BFE0B46514640F6004A0246D0
:100D10005846BB46C4F2010A03F076FB03F076FDA9
:100D2000009B00E00020A8F83E00B9F82A10B9F8AE
:100D30002A00B1F5FA6F11D946F26761A0F5FA60A1
:100D4000C6F2666180FB0101C80800EBD17018444F
:100D5000C0B2C82828BFC82010E000BF46F26761B3
:100D6000C0F5FA60C6F2666180FB0101C81000EBB5
:100D7000D17081B2994294BF181A002099F81110CD
:100D800088F8400008F11E0499F80E00625C08F132
:100D9000280599F80F30695C801A89F80E00581AF6
:100DA00089F80F000AF50060042100F087FEB0FA10
:100DB00080F099F811104009605458464FF4805162
:100DC00000F07CFE99F81120B0FA80F099F80E102E
:100DD00099F80F30A75C4009A85439441844CFB2A1
:100DE00089F80E10C1B289F80F00501C4CF6CD42A4
:100DF0004243D20C02EB8202A0EB420089F81100C0
:100E00000020062F4FF0000288BF012289F80B2036
:100E1000062988BF012089F80C00AAF580604021CE
:100E200000F04CFE40F25801C2F200010A7801289D
:100E300004D1012A03D1002005E000BF12B101B0A6
:100E4000BDE8F08F0120087001B0BDE8F08F000010
:100E5000B0B540F25000C2F200000078002808BF90
:100E6000B0BD40F2C004C2F20004E07D052805D107
:100E700040F2AC20C2F2000005680CE040F24C10D9
:100E800040F2AC21C2F20000C2F2000190F8400032
:100E90000D68E085A863608E03F02CFD4CF6CD4212
:100EA0004CF6CC43CCF6CC42C4F2360303F054FBF0
:100EB00003F0DCFCE863208E4CF6CD414843000D86
:100EC0002864B0BDF0B581B00022009290F82420D3
:100ED000012A05D14FF0020C604601B0F0BD00BF01
:100EE0008368D1F804E0012280F82420A3B1D1F86E
:100EF00010C00368BEEB0C0404EB84049D6B04F18A
:100F00000F044FF01F0202FA04F225EA020222F453
:100F1000401515D99D631DE0BEF1010F40F0B6806C
:100F200003684FF0000C9A6B0D686FF3150242EAEC
:100F3000C5329A634FF0010E9A68D2070FD022E0B3
:100F400000220E68CFF6F07202EB0C52A64032433C
:100F50002A439A634FF0000C9A68D20713D19A681B
:100F600047F20104A24342F20044C4F201048D6935
:100F700004F5C0545C4085F4C046344308BF4FF4C8
:100F800080452A439A604A7D012A1FD00C7D012C9E
:100F900030D00A68092A02EB42043FD9DD681E3CC2
:100FA00007268F68A640B54307FA04F42C4322F0C5
:100FB0000105102DDC6049D19C68012544F4000432
:100FC0009C60BEF1030F36D144E000BF8C6900F194
:100FD0002805B4F5E04F4FF0200414BF4FF0010C8A
:100FE0001D1D08BF4FF480642E6834432C600C7DB7
:100FF000012CCED100F12804002A4FF0200214BFAA
:101000004FF0010C1C1D08BF4FF4805225682A4385
:1010100022600A68092A02EB4204BFD81D6907262C
:101020008F68A640B54307FA04F42C431C610025E1
:10103000BEF1030F0ED0BEF1020F0FD0BEF1010FB3
:1010400014BF03F1200403F1140409E00025BEF1EC
:10105000030FF0D103F11C0402E000BF03F11804F8
:10106000276840F6FF76C968B7433943002D2160F1
:1010700048D042F20041C4F201018B4212D0816A91
:101080004FF0010C41F0200181623BE00368826A6D
:101090004FF0010C42F0200282629A68D2073FF4BE
:1010A0005EAF70E7896809022CD49968102A41F470
:1010B0000001996026D140F25401C2F20001096892
:1010C0004DF68362C4F21B32A1FB0212910C01EBBC
:1010D0008101490000910099A1B100990139009165
:1010E000009979B1009901390091009951B10099A5
:1010F00001390091009929B10099013900910099B5
:101100000029EAD1002180F82410604601B0F0BD2A
:10111000022909D003290BD00068042914BF3C30F0
:1011200048300068704700BF006840300068704772
:10113000006844300068704710B5044690F82400F9
:10114000012804BF022010BD012084F8240020469D
:10115000FFF79AF820B1002184F8241010BD00BFD9
:1011600042F204422168A06AC4F2010243F2010380
:10117000984302F57F7300F580509942A06203D036
:10118000A06A20F4801006E0106810F4702FF7D0E9
:10119000A06A40F48010A062A06AC0055CBF002075
:1011A000E062002084F824006FF004040C604C68B6
:1011B000640548BF10BD886800F4E040B0F5E04F1A
:1011C00005D199420AD1106810F4702F06D08868B2
:1011D00040F400408860002010BD00BF886840F4E3
:1011E00002108860002010BD10B581B0002200926E
:1011F00090F82420012A03D10221084601B010BD35
:101200004B680122062B80F8242017D8D0F800C0A4
:1012100003EB83035A1F1F23DCF834E003FA02F4C4
:101220000B682EEA040403FA02F22243CCF83420BD
:10123000092B03EB430219D936E000BFD0F800C0F8
:101240000C2B03EB83021DD8233A1F23DCF830E07C
:1012500003FA02F40B682EEA040403FA02F22243B2
:10126000CCF83020092B03EB43021DD8DCF81030FA
:10127000072489689440A34391401943CCF8101087
:10128000002130E0413A1F23DCF82CE003FA02F49D
:101290000B682EEA040403FA02F22243CCF82C2055
:1012A000092B03EB4302E1D9DCF80CE01E3A0724DA
:1012B000896894402EEA0404914023F001022143FE
:1012C000102ACCF80C100DD142F20841C4F20101F1
:1012D000A1F1080294450DD0816A41F0200181629C
:1012E000012100E00021002280F82420084601B0FE
:1012F00010BD00BF0A68120230D40A68102B42F4F5
:1013000000020A602CD140F25401C2F200010968C7
:101310004DF68362C4F21B32A1FB0212910C01EB69
:101320008101490000910099E1B1009901390091D2
:101330000099C9B10099013900910099B1B10099A2
:1013400001390091009999B10099013900910099F2
:1013500000294FF00001E8D1C5E700BF0021C2E736
:101360000021C0E70021BEE70021BCE70021BAE769
:101370000021B8E70068C06C70470000B0B50028D5
:1013800000F0B2800446806A20B121688868C007F6
:101390000BD114E00020E06284F82400204600F025
:1013A000A5F821688868C00709D0886820F0010086
:1013B000886000F097FB21688A68D20730D1A06A64
:1013C000C00644D4A06A41F2021290430230A062E7
:1013D000E36981F0804080F49E3083F44022104322
:1013E00008BF4FF40023D4E9010243EA000C531E66
:1013F000B3FA83F35D091346B2F5807F18BF2B0261
:10140000207D257B01284CEA450030D135B3A56A03
:1014100045F02005A562E56A45F00105E56226E094
:10142000054602E08868C007C9D000F05BFB401B9E
:1014300021680328F6D38868C007F3D0A06A40F07B
:101440001000A062E06A40F00100E062A06AA06AB9
:1014500040F01000A0620120B0BD00BFD4F818C059
:101460004EF60005CFF6FF7505EB4C352B434D6866
:10147000B2F5807F25F4694543EA05034B608B682C
:101480004FF2FD75CFF6E17503EA050343EA000369
:101490008B6001D0012A07D122690023CFF6F073B7
:1014A00003EB025201E000BF0022CB6A23F4700379
:1014B0001A43CA62896840F6FE62CFF61F72114075
:1014C000814207D10020E062A16A012262F301019A
:1014D000A162B0BDA06A40F0100020F00200A0623E
:1014E000E06A40F00100E0620120B0BDF0B585B0D7
:1014F000006842F60001C4F2010188424FF0000189
:10150000CDE90311CDE9011128D042F20041C4F226
:101510000101884256D141F21800C4F2020001686C
:10152000012641F400710160016801F4007100912D
:101530000099016841F010010160016801F010019B
:1015400000910099016841F004010160006800F019
:10155000040000900098072021E000BF41F218002D
:10156000C4F202000168062641F48061016001684E
:1015700001F4806100910099016841F0100101605F
:10158000016801F0100100910099016841F0040127
:101590000160006800F0040000900098382001907D
:1015A00040F60004C4F2010401AD032704F5006015
:1015B0002946029700F084F920462946CDE90167C3
:1015C00000F07EF905B0F0BD10B5044690F8240097
:1015D000012804BF022010BD012084F82400204609
:1015E000FEF752FE20B1002184F8241010BD00BF88
:1015F00042F2044C2068A16AC4F2010C40F20132AC
:1016000091430CF57F7201F580719042A16233D055
:10161000A16A21F48011A1624168490504D5A16A3B
:10162000012363F30D31A162A16A0023C9044FF0C5
:10163000000144BFE16A21F00601E1626FF002019E
:1016400084F824300160816801F46021B1F5602FD5
:1016500006D190420AD1DCF8001011F4702F05D0A9
:10166000816841F480118160002010BD816841F4DF
:10167000A0018160002010BDDCF8001011F4702F73
:10168000C6D0A16A41F48011A162DCF800104905BE
:10169000C5D4C9E710B500284FF0010318BF0029D1
:1016A00002D1184610BD00BF4379012B4FF0020351
:1016B000F7D00371036802F0100ED3F800C0D1E92F
:1016C000004140F6FE7202FA0EF221432CEA0202B9
:1016D00001FA0EF111431960C0211A6801FA0EF1E6
:1016E00022EA0101196001210023017143711846AA
:1016F00010BD0000002804BF0120704710B504464B
:10170000007920B900206071204600F007F802201F
:101710002071002001212061217110BD80B586B0AB
:1017200047F200410068C4F200010022884205929D
:10173000049201D006B080BD41F21800C4F202004C
:10174000426842F000524260426802F00052019248
:10175000019A026842F004020260006800F004008E
:1017600001900198302002900320039001F514406D
:1017700002A900F0A5F806B080BD000081B04FF0CE
:10178000000CCDF800C068B10068002900900098F6
:10179000104414BF143008300090009803600020FB
:1017A00001B07047012001B07047000010B5D8B1FA
:1017B0004279012A4FF0020224D00271026801F03E
:1017C000100E4FF0010C14680CFA0EF32343136053
:1017D000D2F800C051B13C230CF4701103FA0EF39F
:1017E00099420BD1022106E0012010BD0CF03C0112
:1017F0003C2903D101215368194351600121002282
:1018000001714271104610BDB0B5044600F06AF98E
:10181000054640F24800C2F200000078611C18BF83
:10182000044400BF00F05EF9401BA042FAD3B0BDF3
:1018300070B540F2C005C2F20005E87D052831D13F
:1018400040F25800C2F200000078012818BF70BDB5
:1018500040F60044C4F2010420464FF4805100F0E9
:101860002DF9012811D1288C298D4FF42F7202EB0C
:10187000D101884209D9E87938B904F5806080211E
:101880000122012600F028F9EE7420464FF4805121
:1018900000F014F9012805D1697900200029E880B9
:1018A00008BF288770BD000040F21441C4F2010156
:1018B0000A68024214BF08607047FFF7B9BF000012
:1018C0002DE9F04F82B0D1F800C0BCF1000F00F05C
:1018D000F180A0F1804241F60045A2F58432C4F2C5
:1018E000010540F2004E4FEAB2240627A842C4F296
:1018F000010E08BF0527052C4FF000044FF001082A
:101900004FF00F034FF0000A4FF0000B38BF4FEAC3
:10191000B22700970AE000BFD1F800C00AF1010A1F
:101920003CFA0AF204F1040400F0C48008FA0AF94F
:101930001CEA090FF0D04E684FF6FF72C1F2100298
:10194000964211DC122E55D8DFE806F0340A4448DE
:10195000545454545454545454545454544C5000A7
:10196000D1F80CB046E000BF4FF6FF72C1F2210281
:1019700096420FDC0022C1F2110296421AD00022D8
:10198000C1F21202964215D00022C1F22102964203
:1019900010D02FE00022C1F2220296420AD000228B
:1019A000C1F23102964205D00022C1F232029642C3
:1019B00020D100BF8A684AB1012A14BFC0F8149030
:1019C000C0F810904FF0080B14E000BF4FF0040B6C
:1019D00010E000BFCA6802F1080B0BE04FF0000BEB
:1019E00008E000BFCA6802F1040B03E0CA6802F114
:1019F0000C0B00BF22460646BAF1080F24BF203A5E
:101A00000436376803FA02F5AF430BFA02F23A43A1
:101A10003260CA79D2067FF57FAF41F21807C4F26F
:101A200002073A684FF6084342F001023A603A680A
:101A3000CFF6FF7302F001020192019A2AF003022D
:101A400072440F25D75804F00C06B540AF43009DF3
:101A500005FA06F63743D7504E6840F20C45F202BD
:101A6000DEF8082054BF22EA090242EA0902CEF851
:101A70000820C4F201052A68B70254BF22EA09020D
:101A800042EA09022A60DEF80420B70354BF22EAC2
:101A9000090242EA0902CEF804200F23DEF80020F2
:101AA000F70354BF22EA090242EA0902CEF80020F5
:101AB00032E700BF02B0BDE8F08F00008068084048
:101AC00018BF012070470000C26802EA0103914379
:101AD00041EA034101617047002A08BF090401611E
:101AE0007047000040F28430C2F200000068704786
:101AF00040F2480040F28431C2F20000C2F200011C
:101B000000780A68104408607047000080B542F20F
:101B10000000C4F20200016841F0100101600320DE
:101B200000F086F80F2000F005F800F027F80020FC
:101B300080BD000070B540F24806C2F2000640F2D7
:101B400054013278C2F200014FF47A730968B3FB92
:101B5000F2F20446B1FBF2F1084600F0E9FB0F2C6B
:101B60004FF0010508D838B94FF0FF302146002268
:101B7000002500F031F87460284670BD82B041F253
:101B80001800C4F20200016841F00101016001681F
:101B900001F0010101910199416841F080514160DA
:101BA000406800F080500090009802B0704700003C
:101BB000002848BF7047C1B200F01F00012202FA9E
:101BC00000F04EF20012CEF2000242EAD10121F002
:101BD000030108607047000010B54EF60C5CCEF2B1
:101BE000000CDCF80030C3F3022E8EF00704042C46
:101BF00028BF0424BEF103034FF0FF3E0EFA04F4A5
:101C000038BF0023A14399400EFA03F39A431143CE
:101C100000F00F0200F160430901043A03F5644348
:101C20006244002848BF02F10C03197010BD000087
:101C30004EF60C51CEF200010A684FF6FF031A402F
:101C400060F30A2242F0806040F0FD700860704747
:101C50002DE9F04182B00446007841F21C06C0072D
:101C6000C4F202064AD0306810F0805808D13068BB
:101C700040F080503060306800F080500190019852
:101C800047F20007C4F200073868C00512D438686C
:101C900040F480703860FFF725FF05463868C005BE
:101CA00008D4FFF71FFF401B6428F7D9032002B0B8
:101CB000BDE8F081706810F4407012D0616801F4E2
:101CC000407188420DD0706840F24042C4F2422216
:101CD000012320F4407113600023C007136071607A
:101CE0002AD17068616820F440700843B8F1000F91
:101CF000706003D1306820F0805030602068810728
:101D000007D556F8181CA26821F44041114346F843
:101D1000181CC00604D4002002B0BDE8F08100BF4A
:101D200056F8180C616920F48000084346F8180C36
:101D3000002002B0BDE8F081FFF7D4FE054641F275
:101D4000883700BF70688007CBD4FFF7CBFE401BFD
:101D5000B8424FF00300F5D9EBE700002DE9F0435E
:101D600081B0002800F0878042F20008C4F2020827
:101D70000446D8F800000D4600F0070088420CD257
:101D8000D8F8000020F007002843C8F80000D8F871
:101D9000000000F00700A8426DD1206841F204095C
:101DA0008107C4F2020917D5410705D5D9F80010FB
:101DB00041F4E061C9F80010010705D5D9F8001019
:101DC00041F46051C9F80010D9F80010A26821F060
:101DD000F0011143C9F80010C00743D1D8F8000042
:101DE00000F00700A8420CD9D8F8000020F0070046
:101DF0002843C8F80000D8F8000000F00700A84207
:101E000039D12068410707D5D9F80010E26821F4DC
:101E1000E0611143C9F80010000708D5D9F80000A7
:101E2000216920F4605040EAC100C9F80000D9F8E7
:101E3000001041F6003001F00C02042AC0F2B70095
:101E400058D0082A44D145F68E33C1F38342C0F6F8
:101E500000039A5CC90341D440F60010C0F23D0073
:101E6000504347E0606802280AD001282AD159F877
:101E7000041C890308D4012001B0BDE8F08300BF31
:101E800059F8041C8901F6D5D9F8001021F0030196
:101E90000843C9F80000FFF725FE064641F28837DF
:101EA000D9F80000616800F00C00B0EB810F95D00C
:101EB000FFF718FE801BB842F2D9032001B0BDE83D
:101EC000F08300BF59F8041C8907D4D5DCE700BFB4
:101ED00041F20020C0F27A000CE000BFD9F80010F7
:101EE00045F68C33C1F34041C0F60003595C5043C2
:101EF000B0FBF1F0D9F8001044F6F462C1F303111D
:101F0000C0F60002515C40F2540220FA01F140F2A6
:101F10004C00C2F200000068C2F200021160FFF73C
:101F200009FE002001B0BDE8F083000040F254003B
:101F300041F20401C2F20000C4F202010068096823
:101F400044F60472C1F30221C0F60002515CC8409D
:101F50007047000040F2540041F20401C2F2000058
:101F6000C4F202010068096844F60472C1F3C22198
:101F7000C0F60002515CC840704700002DE9F041F6
:101F800082B0002868D00446007841F20006C007FD
:101F9000C4F2020625D0706800F00C0004281BD0A3
:101FA000706800F00C00082802D17068C00313D4D8
:101FB0006068002800F06881B0F5A02F00F07C81F7
:101FC000B0F5803F00F07C81306820F480303060D4
:101FD000306820F4802076E13068800301D56068A5
:101FE000D0B32078800718D5706810F00C0F07D098
:101FF000706800F00C0008286ED17068C0036BD4C4
:102000003068800702D52069012825D130686169D0
:1020100020F0F80040EAC1003060207800071FD4AB
:102020002078400732D4E56995B1706800F00C0063
:10203000082840F08F80012D0ED07068216A00F4CE
:1020400080328A4208D1616A00F47010884203D15C
:10205000002002B0BDE8F081012002B0BDE8F081AF
:10206000A069002862D00020C4F242200121C0F8FB
:102070008014FFF737FD0546706A800700F18C80F9
:10208000FFF730FD401B0228F6D92AE1F06910F075
:10209000805808D1F06940F08050F061F06900F09C
:1020A00080500090009847F20007C4F2000738689B
:1020B000C00529D4386840F480703860FFF712FDFD
:1020C000054600BF3868C0051ED4FFF70BFD401B56
:1020D0006428F7D905E100BF2069002840F200001C
:1020E000C4F2422000F0828001210160FFF7FAFC77
:1020F000054600BF306880073FF588AFFFF7F2FC68
:10210000401B0228F6D9ECE0E068002800F080804F
:10211000052800F09780012800F09880306A20F0B0
:1021200001003062306A20F0040092E00020C4F226
:1021300042200021C0F88014FFF7D4FC054600BF00
:10214000706A80077FF56CAFFFF7CCFC401B02285C
:10215000F6D9C6E00027C4F2422700203866FFF710
:10216000C1FC022D05460BD13068800140F1BE80D4
:10217000FFF7B8FC401B02284FF00300F4D968E7D2
:10218000306880017FF564AFFFF7ACFC401B02288C
:102190004FF00300F4D95CE740F25400C2F20000B3
:1021A000006844F6D351C1F26201A0FB0101480A64
:1021B000019000BF00BF0198411E002801913FF42B
:1021C0002FAF00BF0198411E002801913FF428AFB6
:1021D00000BF0198411E002801913FF421AF00BFCC
:1021E0000198411E00280191E4D119E70021016006
:1021F000FFF778FC054600BF306880077FF50DAF1C
:10220000FFF770FC401B02284FF00300F4D920E7D1
:10221000306A20F001003062306A20F00400306241
:10222000FFF760FC054641F2883700BF306A80073F
:1022300020D5FFF757FC401BB8424FF00300F5D9FB
:1022400007E700BF306A40F004003062306A40F0B7
:1022500001003062FFF746FC054641F2883700BFB7
:10226000306A800706D4FFF73DFC401BB842F7D91F
:1022700037E000BFB8F1000F7FF4D5AEF06920F071
:102280008050F061CFE600BF306820F480303060CD
:10229000306820F480203060FFF724FC054600BF42
:1022A000306880037FF59DAEFFF71CFC401B64285F
:1022B0004FF00300F4D9CCE6306840F48020306061
:1022C000306840F480303060FFF70CFC054600BFFA
:1022D000306880033FF585AEFFF704FC401B64289F
:1022E000F6D9032002B0BDE8F08100BF206AB0F546
:1022F000803F05D17168A26821F4003111437160FB
:102300007168626A21F474111143084370600120FE
:102310003866FFF7E7FB0446306880013FF598AE6A
:10232000FFF7E0FB001B02284FF00300F4D990E612
:10233000411E0020B0EB116F1CBF012070474EF210
:102340001002CEF2000251604EF62351CEF200018F
:10235000F0230B70072190601160704770470000F8
:1023600070470000B0B590F83C20012A04BF02205D
:10237000B0BD01F108053CCDD1E900CE23F47C537A
:1023800022F470521A432EF4F0431A432CF4E04323
:102390001A4324F4C0431A432A43C96922F48042F1
:1023A000036811435964002180F83C100846B0BD11
:1023B00010B590F83C20012A4FF002023FD080F87F
:1023C0003D200268D2F804E0D2F808C00C682EF074
:1023D0007003234340F6FF34C4F20004A24253606A
:1023E00010DCB2F1804F1FD040F20043C4F2000372
:1023F0009A4219D040F60003C4F200039A4213D067
:1024000017E000BF40F60043C4F200039A420BD02D
:1024100043F20043C4F201039A4205D042F600435E
:10242000C4F201039A4204D149682CF08003194395
:1024300091600121002280F83D1080F83C20104678
:1024400010BD0000002804BF0120704710B50446ED
:1024500090F83D0028B9002084F83C00204600F0A8
:1024600085F8022084F83D00206840F6FF330268BA
:10247000C4F2000343F2004C9842C4F2010C21DC88
:10248000B0F1804F2CD040F20041C4F200018842EC
:1024900026D040F60001C4F20001884220D09842C4
:1024A00024DCB0F1804F2FD040F20041C4F2000193
:1024B000884229D040F60001C4F20001884223D0AE
:1024C00026E000BF40F60041C4F20001884207D078
:1024D000604505D042F60041C4F201018842DED1D8
:1024E000A16822F070020A439842DADD40F600410A
:1024F000C4F20001884207D0604505D042F6004191
:10250000C4F20101884203D1216922F440720A43D6
:10251000A36922F08001D4F804E0E2681943604521
:102520000160C262C0F828E005D042F60041C4F262
:102530000101884201D161690163012141610020EB
:1025400084F8461084F83E1084F83F1084F8401058
:1025500084F8411084F8421084F8431084F8441041
:1025600084F8451084F83D1010BD000080B584B09B
:10257000006841F20001C4F2000188421ED041F21D
:102580000041C4F20001884230D042F60041C4F25A
:10259000010188420FD141F21C00C4F2020050F840
:1025A000041C41F4006140F8041C50F8040C00F4D1
:1025B00000600390039804B080BD00BF41F21C008E
:1025C000C4F202000168002241F0100101600068BD
:1025D000002100F01000029002983620FFF7FCFA6C
:1025E000362004B0BDE88040FFF7E2BA41F21C009B
:1025F000C4F202000168002241F02001016000687D
:10260000002100F02000019001983720FFF7E4FA44
:10261000372004B0BDE88040FFF7CABA90F83D10FB
:1026200001291CBF01207047022180F83D1000687D
:1026300040F6FF32C168C4F20002904241F001014D
:10264000C1600FDCB0F1804F1ED040F20041C4F2F7
:102650000001884218D040F60001C4F2000188420F
:1026600012D018E040F60041C4F2000188420BD0BD
:1026700043F20041C4F20101884205D042F6004114
:10268000C4F20101884206D1816801F007010629E0
:1026900004BF00207047016841F001010160002083
:1026A000704700000146006841F21113C26822F031
:1026B0000102C260026A1A4204D00122002081F89D
:1026C0003D207047026A40F244431A42F5D1026845
:1026D00022F0010202600122002081F83D207047B3
:1026E00080B590F83C20012A4FF0020200F0C28031
:1026F00080F83D20D0F800C04FF67772DCF8083043
:1027000023EA0202CCF808200B684F2B28DC1F2B91
:1027100044DD202B45D0302B43D0402B40F0AC8003
:10272000D1F804E0C968DCF82030DCF8202022F081
:102730000102CCF82020DCF8182022F0F00242EA56
:10274000011123F00A0242EA0E02CCF81810CCF86C
:102750002020DCF8081041F0470121F0300180E032
:102760006F2B27DDB3F5005F48D0B3F5805F7AD0DB
:10277000702B40F08180D1E901E3C968DCF80820C2
:1027800043EA0E0322F47F4243EA01211143CCF8CD
:102790000810DCF8081041F0770162E00BB1102B53
:1027A0006AD1DCF8081021F07001194341F00701EB
:1027B00057E000BF502B35D0602B5DD1D1F804E03D
:1027C000C968DCF82030DCF8202022F01002CCF8B8
:1027D0002020DCF8182022F4704242EA013123F074
:1027E000A00242EA0E12CCF81810CCF82020DCF837
:1027F000081041F0670121F0100132E0D1E901E356
:10280000C968DCF8082043EA0E0322F47F4243EA59
:1028100001211143CCF80810DCF8081041F4804184
:102820001FE000BFD1F804E0C968DCF82030DCF814
:10283000202022F00102CCF82020DCF8182022F021
:10284000F00242EA011123F00A0242EA0E02CCF839
:102850001810CCF82020DCF8081041F0570121F0C6
:102860002001CCF808100022012180F83D10002141
:1028700080F83C10104680BD0122F5E7704700004B
:1028800010B5016804460869800744BFC8685FEA5C
:10289000807039D40869400744BFC8685FEA407057
:1028A0003ED40869000744BFC8685FEA007045D499
:1028B0000869C00644BFC8685FEAC0604AD40869B6
:1028C000C0071CBFC8685FEAC07051D10869000624
:1028D00044BFC8685FEA006052D40869400644BF3C
:1028E000C8685FEA406053D40869800646BFC8687C
:1028F0005FEA806010BD6FF0200220460A61BDE8EB
:102900001040FFF72DBD00BF6FF0020008610120ED
:1029100020778869800743D02046FFF7AFFF45E066
:102920006FF00400086102202077886910F4407F6E
:1029300040D02046FFF7A2FF42E000BF6FF0080042
:10294000086104202077C86980073DD02046FFF742
:1029500095FF3FE06FF01000086108202077C869FC
:1029600010F4407F3AD02046FFF788FF3CE000BFDC
:102970006FF001000861204600F0A0FA2168A5E789
:102980006FF0800008612046FFF7E8FC2168A4E7AB
:102990006FF040000861204600F092FA2168A3E73A
:1029A000204600F04DF8204600F014FA216800207F
:1029B00020776FE7204600F043F8204600F00AFA3F
:1029C0002168002020776CE7204600F039F8204687
:1029D00000F000FA21680020207769E7204600F027
:1029E0002FF8204600F0F6F921680020207766E7EE
:1029F00080B586B0014640F60000C4F201000968C7
:102A000000F5105300229942049201D006B080BD17
:102A100041F21801C4F202010A6842F004020A609D
:102A2000096801F00401019101994FF4606102917C
:102A300002210391059102A9FEF742FF06B080BD75
:102A4000704700002DE9F04190F83C30012B04BFA5
:102A50000220BDE8F0814FEAB202032A00F21C8195
:102A6000DFE802F0024690DA036843F200461D6A8E
:102A70001A6A25F0020522F001021A621A465C6801
:102A800052F818EF8F68D1F800C0C4F20106B342C3
:102A900045EA070505D042F60047C4F20107BB42EC
:102AA00005D1CF6825F00C0527F004073D43B3425C
:102AB00005D042F60046C4F20106B34205D1D1E981
:102AC000056724F4407434433C432EF0730747EA0F
:102AD0000C075C609F614F6809695F631D629F69B5
:102AE00047F008079F619F6927F004079F61C9E0CD
:102AF000036843F200461D6A1A6A25F0200522F099
:102B000010021A621A46D3F804C052F8188F8F6860
:102B1000D1F800E0C4F20106B34245EA071505D03A
:102B200042F60047C4F20107BB4207D1CF686FF0FD
:102B3000400425F0C00504EA07142543B34205D03C
:102B400042F60044C4F20104A34206D1D1E905468D
:102B50002CF44067264347EA860C28F4E64444EA0E
:102B60000E27C3F804C09F614F6809699F631D6207
:102B70009F6947F400679F619F6927F480679F61A1
:102B80007FE000BF036843F200461D6A1A6A25F41D
:102B9000007522F480721A621A46D3F804C052F803
:102BA0001CEF8F68D1F80080C4F20106B34245EAF9
:102BB000072505D042F60047C4F20107BB4208D101
:102BC000CF6840F2FF443F0225F4406527EA040441
:102BD0002543B34205D042F60044C4F20104A342A7
:102BE00006D1D1E905462CF44057264347EA061C96
:102BF0002EF0730747EA0807C3F804C0DF614F6887
:102C00000969DF631D62DF6947F00807DF61DF697B
:102C100027F00407DF6135E0036843F20047D3F88B
:102C200020C01A6AC4F2010722F480521A621A46BE
:102C30005C6852F81C5FD1F800E08E68BB4205D09A
:102C400042F60047C4F20107BB4204D14F6924F4A5
:102C5000804444EA87142CF4005747EA063725F4E9
:102C6000E64646EA0E265C60DE614E6809691E642F
:102C70001F62DF6947F40067DF61DF6927F480675F
:102C8000DF6109021368194311600021002280F8F6
:102C90003C200846BDE8F0810121002280F83C205C
:102CA0000846BDE8F0810000002804BF01207047FD
:102CB00010B5044690F83D0028B9002084F83C0087
:102CC000204600F085F8022084F83D00206840F698
:102CD000FF330268C4F2000343F2004C9842C4F28E
:102CE000010C21DCB0F1804F2CD040F20041C4F245
:102CF0000001884226D040F60001C4F2000188425B
:102D000020D0984224DCB0F1804F2FD040F2004117
:102D1000C4F20001884229D040F60001C4F200014B
:102D2000884223D026E000BF40F60041C4F20001F3
:102D3000884207D0604505D042F60041C4F2010147
:102D40008842DED1A16822F070020A439842DADD9F
:102D500040F60041C4F20001884207D0604505D02A
:102D600042F60041C4F20101884203D1216922F4F4
:102D700040720A43A36922F08001D4F804E0E268BB
:102D8000194360450160C262C0F828E005D042F6F0
:102D90000041C4F20101884201D16169016301214E
:102DA0004161002084F8461084F83E1084F83F10FA
:102DB00084F8401084F8411084F8421084F84310DD
:102DC00084F8441084F8451084F83D1010BD0000CC
:102DD000704700007047000041B1082910D0042955
:102DE00014BF00F1410200F13F020BE090F83E20D9
:102DF000012A1CBF01207047022280F83E2013E008
:102E000000F140021278012A1CBF01207047022203
:102E1000082907D0042914BF80F8412080F83F20FA
:102E200002E000BF80F84020006801F01F0101228D
:102E3000036A02FA01F123EA01020262026A114303
:102E400040F6FF32C4F20002904201620EDCB0F1A3
:102E5000804F25D040F20041C4F2000188421FD0CB
:102E600040F60001C4F2000118E000BF40F6004146
:102E7000C4F20001884213D043F20042C4F20102BE
:102E800042F600419042C4F2010101D088420ED1C5
:102E9000436C904243F40043436401D0884206D11E
:102EA000816801F00701062904BF0020704701680E
:102EB00041F00101016000207047000070470000F0
:102EC00070470000002804BF0120704710B5044679
:102ED00090F8410028B9002084F84000204600F016
:102EE00063F8242084F841002068D4E90212C36802
:102EF00023F40053C360036923F440531A4302616F
:102F0000D4E904231143C268194341F20C639A4384
:102F10001143C1604169A26921F44071114343F634
:102F20000002C4F201029042416103D0FEF7FEFFAD
:102F300002E000BFFFF70EF86268192148439100D4
:102F4000B0FBF1F048F21F51C5F2EB11A0FB0123D9
:102F50005A094FF69C73C0F6FF7302FB030032233D
:102F600003EB0010A0FB0101F02303EA51132068DA
:102F700003EB0212C1F3431111448160016921F492
:102F800090410161416921F02A014161C16841F428
:102F90000051C16000202021606484F8411084F851
:102FA0004210606310BD000070B586B041F20004AD
:102FB000C4F201040068A4F5444100268842049646
:102FC00002D006B070BD00BF41F21800C4F202008A
:102FD000416802AD41F400214160416801F40021E3
:102FE00001910199016841F01001016000682946D2
:102FF00000F01000019001984FF4806002900220D0
:103000000390032005902046FEF75AFC4FF4006021
:10301000CDE90206204629460496FEF751FC06B08B
:1030200070BD0000FEE70000FEE70000FEE70000C4
:10303000704700007047000070B540F2C005C2F252
:103040000005E87D0A2800F2D380DFE810F00B00CD
:10305000210153009700D3004F015F017501A701C3
:103060001901AF01688B40F60044C007C4F20104A7
:103070000CD00020A88704F580604FF480710022F6
:10308000FEF72AFD688B80F001006883A87801288C
:1030900004BF0020A8706E78012E0ED104F5806068
:1030A0004FF4004100220026FEF716FD40F2F42006
:1030B000C2F20000FFF7F6FA6E70287B012808BF05
:1030C000002E00F01F8240F24C10C2F20000C18FAF
:1030D0004FF4C86202EB9103483000210022FEF752
:1030E0004DFBA88FE97A01300129A88740F0808044
:1030F00002204DE1688B410744BF80F004006883E3
:10310000687890B940F60040C4F2010000F5806094
:103110004FF4004101220124FEF7DEFC40F2F420CE
:10312000C2F20000FFF77AFA6C70687B4FF4C86255
:10313000B0FA80F04009687240F24C10C2F2000010
:10314000C18F483002EB910300210022FEF716FBED
:10315000A878012809D140F60040C4F20100A0F58A
:1031600080604FF48071FEF7AFFCE87DE97A0130B2
:10317000002908BF0120E87570BD00BF688B40F6CC
:103180000044010744BF80F008006883C4F20104D2
:1031900004F580604FF48041FEF790FC01280CD1CB
:1031A000288C642809D3E88B642806D3688BE97DD2
:1031B00080F010006883481CE87540F24C10C2F2A1
:1031C0000000C18F4FF4C86202EB91034830002128
:1031D0000022FEF7D3FAA878012805D1A4F5806073
:1031E0004FF48071FEF770FCE87A002800F0058249
:1031F00070BD00BF688BC10607D5002180F01000AC
:10320000A987A5F84010A975688340F24C14C2F252
:103210000004E08F4FF4C86101EB900304F1480013
:1032200000210022FEF7AAFAE18FA88F642202EBA8
:103230005102A97D904205D2002902BF0130A88722
:10324000A5F8400083B2934204D0EA8B12094A2ABF
:1032500000F27C810121A9750130B5F8401082B2DD
:10326000511A9629A887C0F2B781E88BC72800F2C7
:10327000A9810020A887A875A5F84000ACE100BF8F
:10328000688B810544BF80F40070688370BD00BF07
:10329000688B810704D5002180F00200A98768832C
:1032A000A878012802D058B90120A87040F6004043
:1032B000C4F20100A0F580604FF48071FEF704FCB9
:1032C00040F24C10C2F20000C18F4FF4C86202EB12
:1032D0009103483000210022FEF750FAE87AE97D98
:1032E000002818BF481CE87570BD00BF688B8106B8
:1032F00000F198806879002800F0B180A88F41091A
:103300007C2900F2BE8001302CE100BF688B4106B1
:1033100044BF80F040006883A878012840F0C28054
:1033200040F60040C4F20100A0F580604FF48071C7
:10333000FEF7CAFB42E100BF688B010644BF80F084
:10334000800068836878012812D140F60040C4F2FA
:10335000010000F580604FF4004100220024FEF7D8
:10336000BBFB40F2F420C2F20000FFF79BF96C7047
:10337000A878012809D140F60040C4F20100A0F568
:1033800080604FF48071FEF79FFB688B80F4807043
:10339000E97D6883481CE87570BD00BF688BC10576
:1033A00000F18480A88F013084E000BF688B40F674
:1033B0000044410544BF80F480606883A878C4F26B
:1033C0000104012804BF0020A870687801280ED1EC
:1033D00004F580604FF4004100220026FEF77CFBDC
:1033E00040F2F420C2F20000FFF75CF96E70687DD5
:1033F0000138062888BF70BDDFE810F00800020120
:10340000080118011E012A01300100BF20464FF4B7
:1034100000710122FEF760FB20464FF4807100220C
:10342000FEE000BFA97A41B90121A97240F23E1124
:10343000C2F200014FF4C8720A80697A40F2580261
:10344000012904BF002169720021C2F20002022397
:1034500080F02000A971A9801370E963688340F2AD
:103460004C1040F2AC21C2F20000C2F2000190F810
:1034700040000968E8858863A88F41097C297FF6A8
:1034800042AFB0F57A6F65D0A879E97908436ED07C
:10349000A878012800F08480E87A00287FF4A8AE9C
:1034A0008CE000BF0720E87570BD00BF80F480701D
:1034B0006883012040F24C14C2F20004A887E08F18
:1034C0004FF4FA7101EB900304F14800002100224F
:1034D000FEF754F9A878012809D140F60040C4F25B
:1034E0000100A0F580604FF48071FEF7EDFAA18F26
:1034F000A88F4FF47A7202EB51018842FFF478AE44
:103500007BE000BF04F5806420464FF400410122B7
:103510000126FEF7E1FA40F2F420C2F20000FFF7C4
:103520007DF8287B6E7000287FF4CDAD20464FF4E7
:10353000004100220024FEF7CFFA40F2F420C2F24C
:103540000000FFF7AFF86C70BDE500BF01293FF444
:1035500083AE41E040F25800C2F200000021017049
:1035600040F6A170A887A879E979084390D140F284
:103570004C10C2F20000C38F483000210022FEF739
:10358000FDF840F60040C4F2010000F580604FF401
:1035900000710022FEF7A0FAA87801287FF47CAF22
:1035A00040F60040C4F20100A0F580604FF4807145
:1035B000FEF78AFAE87A00287FF41AAEE87D013037
:1035C000E87570BDE87D698B0130E87581F02000F9
:1035D00068830020A887A875A878012809D140F63B
:1035E0000040C4F20100A0F580604FF48071FEF746
:1035F0006BFAE87A00287FF4FBAD0020E87570BD17
:1036000020464FF40071002204E000BF20464FF432
:1036100000710122FEF760FA20464FF4807101220A
:10362000FEF75AFA20468021002226E020464FF479
:103630000071002204E000BF20464FF40071012217
:10364000FEF74AFA20464FF48071002210E000BFD6
:1036500020464FF40071002204E000BF20464FF4E2
:1036600000710122FEF738FA20464FF480710122E2
:10367000FEF732FA204680210122FEF72DFA20467D
:1036800040210022BDE87040FEF726BAFEF730BAAE
:10369000704700002DE9F04740F23616C2F20006EE
:1036A000718840F6004A0029C4F2010A40F04C81BA
:1036B00040F2DC0040F2CA02C2F20000C2F2000294
:1036C00000881178F080002940F2F60140F2F40001
:1036D000C2F20001C2F200000ED040F28813C2F222
:1036E00000031F88338AF781013333823589AF4263
:1036F00014D20023137016E040F2C902C2F2000295
:103700001278AAB940F28812C2F2000212883281FD
:10371000098800887181B0821BE000BF3289DB0715
:1037200018BF0332328140F2C902C2F2000212789D
:1037300009880088012A7181B0820AD10AF5806067
:103740004FF48041FEF7BAF9002804BF4FF4C87067
:1037500030813089F788B84203D33089B48AA042D7
:1037600064D23089B84203D23089B48AA0426DD283
:103770003089B84232D33089B48AA0422ED2B6F80A
:1037800004803089201A01F0D1FA43F23331C3F6B4
:10379000337101F0E3FA01F0ADFA31890546C81B37
:1037A00001F0C4FA4CF6CD41C3F6CC6101F0D6FA73
:1037B00001F0A0FAA845C0F07E80318908EB000531
:1037C000601A01F0B3FA43F23331C3F6337101F0FA
:1037D000C5FA01F08FFA281A6DE000BF3089B842AF
:1037E0006AD23089B58AA84266D2B6F80480308998
:1037F000381A01F09BFA4CF6CD41C3F6CC6101F0CA
:10380000ADFA01F077FA31898146681A01F08EFA33
:1038100043F23331C3F6337101F0A0FA01F06AFAD2
:103820004844404540F2F280002044E0B5883089A9
:10383000C01B01F07BFA4CF6CD41C3F6CC6101F020
:103840008DFA01F057FA3189054428E0B5883089AE
:10385000381A01F06BFA4CF6CD41C3F6CC6101F099
:103860007DFA01F047FA318985420BD2081B01F03D
:103870005DFA43F23331C3F6337101F06FFA01F0B0
:1038800039FA18E0781A01F051FA4CF6CD41C3F636
:10389000CC6101F063FA01F02DFA31892D1A081B71
:1038A00001F044FA43F23331C3F6337101F056FAB2
:1038B00001F020FA2844B080B088B189884205D947
:1038C000421A142A09DD142005E000BF0A1A292A29
:1038D00003DB4FF6D8700844B08081B2A1290BD326
:1038E000A0207082B0815038B08040F24000C2F217
:1038F00000000121417015E050297082B08107D885
:1039000040F24000C2F20000042141700AE000BF12
:103910007829E8D840F24001C2F20001022228389A
:103920004A70B08040F24000C2F2000040F61E1122
:103930004180504602210022FEF7CEF85046012178
:103940000022FEF7C9F87188B0880131718098B102
:1039500040F24002C2F2000213785278934206D13C
:10396000504602210122FEF7B7F8B088718801386D
:10397000B080318031E000BF40F24000C2F2000070
:103980003288837889B21A448A420DD2C3781A44A5
:103990008A420DD2027991421AD941780022012936
:1039A000326009D101210DE05046022112E000BF32
:1039B0005046012101220EE00278B2FBF1F303FB35
:1039C000112101310170504602210022FEF784F8D6
:1039D000504601210022FEF77FF840F2D304C2F2E4
:1039E0000004257855B1192D06D10AF58060802193
:1039F00000220025FEF770F8681C207040F2F420C9
:103A0000C2F20000BDE8F047FEF73ABF3089381A2D
:103A100001F08CF94CF6CD41C3F6CC6101F09EF972
:103A200001F068F931890746681A01F07FF943F21D
:103A30003331C3F6337101F091F901F05BF9384489
:103A4000A8EB000037E70000B0B540F20000C2F27A
:103A500000000078002844D0411E40F2040C00F021
:103A6000030E0329C2F2000C44D20022BEF1000F63
:103A700037D002EB42000CEB8000014631F8023FE8
:103A80003BB1013B1C040B8003D183880B800121D7
:103A90000170BEF1010F24D0501C00EB40000CEB74
:103AA0008000014631F8023F3BB1013B1C040B8012
:103AB00003D183880B8001210170BEF1020F10D069
:103AC000901C00EB40000CEB8000014631F8022F07
:103AD0003AB1013A13040A8003D182880A80012195
:103AE000017040F26420C2F20000BDE8B040FEF771
:103AF000C7BE00BF0CF1180300F0FC00002201213A
:103B000005E000BF0432904203F13003AED033F839
:103B1000164C24B1013C250423F8164C0ED033F882
:103B20000A4CACB1013C250423F80A4C10D133F8FF
:103B3000084C03F80C1C23F80A4C09E033F8144C29
:103B400003F8181C23F8164C33F80A4C002CE9D162
:103B50005C881CB1013C25045C800BD0DC89002C06
:103B6000D0D0013C2504DC81CCD11C8A1973DC81C6
:103B7000C8E700BF9C8819705C80DC89002CF0D1FC
:103B8000C0E70000FEE70000B0B540F60044C4F214
:103B9000010404F580604FF40051FDF78FFF40F2FF
:103BA000C0050128C2F2000504D10A20E8750120F1
:103BB000687505E0687D012802BF00206875E8751A
:103BC00020460421FDF77AFF012823D10A20E87559
:103BD00002206875E98C40F6B932914225D203285B
:103BE00002BF00206875E875698C40F6B9329142D1
:103BF00024D2052802BF00206875E875A98C40F61C
:103C0000B932914223D2062802BF00206875E875B8
:103C100021E000BF687D022802BF00206875E875BA
:103C2000E98C40F6B9329142D9D30A20E8750320D5
:103C30006875698C40F6B9329142DAD30A20E8758A
:103C400005206875A98C40F6B9329142DBD30A2071
:103C5000E87506206875EA8B698F40F6AD539A4285
:103C600008D378290CD30A20E8750021072069873A
:103C7000687507E000290CBF0021013901E000BF91
:103C80000131698789B2132998BF072802BF002034
:103C90006875E875B0BD00009AB0FDF737FF0024E5
:103CA0000120CDE90B44CDE9094406900A904FF478
:103CB00080104FF4803102250F9006A81694CDE9AC
:103CC0001444CDE91244CDE90714CDE90D51FEF7B6
:103CD00055F928B1EFF3108072B600BFFEE700BFC0
:103CE0000F20CDE901054FF48060CDE9040401A85F
:103CF00002210394FEF732F820B1EFF3108072B680
:103D0000FEE700BF0226002511A811961395FDF7C6
:103D10009FFF28B1EFF3108072B600BFFEE700BF2F
:103D200041F21809C4F202090995D9F8000040F6D9
:103D3000004840F01000C9F80000D9F80000C4F2B3
:103D4000010800F0100011901198D9F8000008F552
:103D5000806A40F02000C9F80000D9F8000048F25D
:103D6000803100F0200011901198D9F80000002255
:103D700040F00400C9F80000D9F8000048F280348F
:103D800000F0040011901198D9F8000040F00800EC
:103D9000C9F80000D9F8000000F00800119011984F
:103DA0005046FDF799FEA8F5806B584648F2801101
:103DB0000022FDF791FE40464EF23B010022FDF746
:103DC0008BFE47F2400006AFCDE906055046394666
:103DD0000895FDF775FD0694012407A870C05046AC
:103DE0003946FDF76DFD4FF48250CDE90605584682
:103DF00039460895FDF764FD48F2801006A971C1A7
:103E000058463946FDF75CFD4EF23B0006A971C1EC
:103E100040463946FDF754FD40F6C470CDE906052D
:103E2000404639460895FDF74BFD4FF4805006900B
:103E30000020C1F23100CDE9070540463946FDF7C3
:103E40003FFD0420CDE9060508F5006039460895D8
:103E5000FDF736FD282000210022FDF7BDFE2820B9
:103E6000FDF7A6FE40F2C816C2F2000608F5C051E2
:103E7000304640F83C1F4FF480714FF460220B95A0
:103E800004730575C261C0E901510461FDF776FA5A
:103E900020B1EFF3108072B6FEE700BF06F13C07D9
:103EA000002511A93846CDE911541394FDF79CF96A
:103EB00020B1EFF3108072B6FEE700BF0C20069031
:103EC0000120079003200A904FF4E0400C904FF43B
:103ED00080700224ADF82C0006A938460894099594
:103EE000FCF7F0FF20B1EFF3108072B6FEE700BFE1
:103EF0000A20CDE9060406A93846FCF7E3FF28B1FD
:103F0000EFF3108072B600BFFEE700BF0B200690F3
:103F10000320079006A93846FCF7D4FF20B1EFF341
:103F2000108072B6FEE700BF41F2000440F24C156B
:103F3000C4F200040020C2F20005CDE9060004F539
:103F4000C841284640F8481FFDF7D4FB20B1EFF3E5
:103F5000108072B6FEE700BF05F1480606A930469C
:103F60000022FDF797FB28B1EFF3108072B600BF77
:103F7000FEE700BF06A930461022FDF78BFB18B103
:103F8000EFF3108072B6FEE740F2AC20002108F596
:103F90000052C2F200001123C7250491CDE902119D
:103FA000CDE91811CDE90C11CDE90A11CDE90811BF
:103FB000CDE90611C0E90023C0E90215C0E90411EA
:103FC0008161FEF73FFA18B1EFF3108072B6FEE799
:103FD0004FF48050019040F2AC20C2F2000001A9E1
:103FE000FEF77EFB20B1EFF3108072B6FEE700BF54
:103FF00040F2AC20C2F20000FEF756FE20B1EFF313
:10400000108072B6FEE700BF40F2AC20C2F20000A2
:1040100018A9FEF7CDF918B1EFF3108072B6FEE7DC
:10402000602011900020CDE91200CDE91400CDE907
:10403000160040F2AC20C2F2000011A90422FEF7E3
:1040400001FD18B1EFF3108072B6FEE740F2AC202C
:10405000C2F2000011A90822FEF7F4FC20B1EFF330
:10406000108072B6FEE700BF40F2AC20C2F2000042
:1040700011A90C22FEF7E6FC20B1EFF3108072B616
:10408000FEE700BF4FF400500B9040F2AC2000253B
:10409000C2F2000006A90A95CDE90855CDE90655FA
:1040A0000D95FEF75FF918B1EFF3108072B6FEE7D9
:1040B00040F2AC20C2F20000FEF79AFC40F234203D
:1040C00008F5E051C2F2000001234FF460220B9585
:1040D0001395CDE911554FF4807C03730575C261CA
:1040E00080E8221001250361FDF748F920B1EFF3C4
:1040F000108072B6FEE700BF0F20CDE90605042050
:104100000A9008904FF4E0400C904FF48070ADF8A6
:104110002C000020099040F23420C2F2000006A9D1
:10412000FCF7D0FE20B1EFF3108072B6FEE700BFBF
:104130000120069040F234200225C2F2000006A9B8
:104140000795FCF7BFFE18B1EFF3108072B6FEE7DB
:104150000320079040F23420C2F2000006A9069521
:10416000FCF7B0FE20B1EFF3108072B6FEE700BF9F
:104170000D20069040F234200425C2F2000006A96A
:104180000795FCF79FFE18B1EFF3108072B6FEE7BB
:104190000E2011900120CDE9120540F23420C2F228
:1041A000000011A9FDF720F820B1EFF3108072B6DE
:1041B000FEE700BF40F2F4200021C2F200002322FB
:1041C0000B23CDE90611C0E90042C0E90213816169
:1041D000FEF738F920B1EFF3108072B6FEE700BFAA
:1041E00040F2F420C2F2000006A9FEF7E1F818B18F
:1041F000EFF3108072B6FEE740F2342004F58062DF
:10420000C2F20000002140F8302F23226323CDE9C1
:104210000611C0E90121C3608161FEF713F918B1ED
:10422000EFF3108072B6FEE740F23420C2F20000D5
:1042300000F1300506A92846FEF7BAF820B1EFF3E1
:10424000108072B6FEE700BF40F23C3004F57051BA
:10425000C2F2000000240C234FF4E13280E8160083
:10426000C0E90344C0E90534C461FEF72BFE18B170
:10427000EFF3108072B6FEE7D9F80000022240F09A
:104280000100C9F80000D9F8000040F2C00900F0B0
:104290000100069006980420C4F201000168C2F2F1
:1042A000000962F31A610160012089F803002846C1
:1042B000A9F80040FEF7B2F940F2AC25C2F20005C1
:1042C00028460421FEF788FD28686421816328467A
:1042D0000821FEF781FD28680C21C4632846FEF7FB
:1042E0007BFD286804643846FDF76EF93846FCF714
:1042F00023FF40F23424C2F200042046FDF764F9A3
:104300002046FCF719FF30460021002240F2FF73DF
:10431000FDF734FA30460021FDF748FA3046102107
:1043200000220023FDF72AFA30461021FDF73EFA5D
:1043300099F80300E8B3404608210122FDF7CCFBC1
:10434000404610210122FDF7C7FB40464FF40041D3
:104350000122FDF7C1FB58464FF400410022FDF752
:10436000BBFB40464FF480410022FDF7B5FB5046B1
:1043700080210022FDF7B0FB50464FF480710022EF
:10438000FDF7AAFB50464FF400710022FDF7A4FB95
:1043900058464FF480510022FDF79EFB40464FF4F3
:1043A00000510022FDF798FB99F80300013889F8C5
:1043B0000300B9F81A0080F00100A9F81A004FF4C0
:1043C000FA60FDF721FA40F20004C2F200042078FE
:1043D00004F10C080026014600284FF00000FAD036
:1043E00000274546084604E00137874205F10C05E1
:1043F000F1D215F8081C0029F6D0286805F8086CD9
:1044000080472078F0E7000010B591EA030F48BF1D
:1044100083F0004300F18883841A71EB030C05D20A
:10442000121943EB0C03001B61EB0C014FEA115412
:10443000A4EB135CDFF81CE11EEA430F18BF9EEAF1
:10444000445F00F0748021EA045123EA0E0343F430
:104450008013DCF1200E32D322FA0CFE10EB0E009A
:1044600023FA0CFE41EB0E01CCF1200E03FA0EFEF6
:1044700010EB0E00CCF1200E51F10001B1F5801FC0
:1044800032D201EB045112FA0EF2BDE8104058BFCF
:104490007047401C38BF5FEA420218BF70470028CF
:1044A00014BF20F0010041F100014FEA410313F570
:1044B000001F38BF7047A1F1C04100F027BB012A9F
:1044C00043EB0302ACF1200CDCF11F0E32BF4FF0C6
:1044D000000E23FA0CF310EB030041EB0451B4EB94
:1044E000115FD0D0A1EB045101F58011490801EB17
:1044F00004515FEA30000ED350F1000038BF12FAC9
:104500000EFE08D1BDE81040C9E7401C38BF5FEA85
:104510004202CAD1C3E7BDE810404FEA410313F598
:10452000001F38BF7047A1F1C04100F0EFBA9EEA0A
:10453000445F08D011EA5E0FBDE8104004BF01F0EF
:10454000004100207047BDE8104070B500F090FABF
:1045500064FBBE3E0000E0FF2DE9C04130B4DFF84F
:10456000A4C23CEA111418BF3CEA131400F0ED8019
:104570001CEA111481EA030544EAD57418BF1CEA49
:10458000131500F0C880A4EB050404F17F7404F552
:1045900000344FF0004545EAC12145EAC32341EA12
:1045A000505143EA52534FEAC0204FEAC222994287
:1045B00008BF904200F09D804FEA13650FF2441649
:1045C000765D4FEA134506FB05F7C7F1807706FBDA
:1045D00007F74FEAD737A7FB03687642A7FB06CE5B
:1045E000C8F5803838BFA8F1010807FB08E6A6FB2C
:1045F000028C4FF0000EE6FB03CEDCF1000CCEF196
:10460000004E38BFAEF1010EA6FB0C584FF000076C
:10461000E6FB0E87A1FB08C6A0FB07CE16EB0E0635
:104620004FF0000545F10005E1FB076515F1E04E8F
:104630007EBFA4F580345FEA46066D4116F180071F
:1046400045F100054FEA172747EA05674FEA1525A8
:104650004FEA0666A6F1DE46B6F1805F20D93846FD
:1046600005EBC47124F0010C01EB0C11BCF1FE6FE1
:1046700002D8F0BCBDE8008124425CBF01F5801E79
:104680009EEAC47F02D4F0BCBDE80081244200F160
:104690003980A1F1C041F0BCBDE8004100F036BA5C
:1046A0004FEAD02040EA41504FEAD1214FEAD222CE
:1046B00042EA43524FEAD323A7FB028607FB036675
:1046C00005FB02661EEA0E0F58BFA6EB0056B6EBBE
:1046D00000564FEA520E4EEAC37E18EB0E0E56EB12
:1046E000530EBCD518EB02085E417F1C55F1000546
:1046F000B5E74FF480154FF000074FF000064FF07C
:104700000008ACE701F1C04101F000414FF00000AA
:10471000F0BCBDE800810CEA131511EA0C1F00D0B3
:104720000CE013EA0C1F00F026804FF0000081EA35
:10473000030101F00041F0BCBDE80081F0BCBDE820
:10474000004181EA030100F0E1B9F0BCBDE800419D
:1047500070B500F08DF900BF097EFC3E00F007B88F
:104760004FF0000081EA030101F00041704781EA47
:10477000030100F0CBB9F0BCBDE8004122494FF085
:1047800000007047FFFDFBF9F7F5F4F2F0EEEDEBFA
:10479000E9E8E6E4E3E1E0DEDDDBDAD8D7D5D4D33F
:1047A000D1D0CFCDCCCBCAC8C7C6C5C4C2C1C0BF8B
:1047B000BEBDBCBBBAB9B8B7B6B5B4B3B2B1B0AF91
:1047C000AEADACABAAA9A8A8A7A6A5A4A3A3A2A175
:1047D000A09F9F9E9D9C9C9B9A9999989797969530
:1047E00095949393929191908F8F8E8E8D8C8C8BCC
:1047F0008B8A898988888787868585848483838254
:10480000828181800000FF070000F87F4FEA4103AA
:104810004FEA5353A3F58063D3F11E03C8BFD3F10E
:10482000210C0CDD4FF0004242EAC12242EA505214
:1048300032FA03FC8CEAE17CACEBE1707047102BA0
:10484000C4BF0020704703F5787CBCF1FF3F04D063
:104850006FF0004282EA2100704770B500F008F95D
:104860004992248000207047F2E700004FEA11537C
:10487000A3F58063D3F11E03A8BFD3F1200C08DB9E
:104880004FF0004242EAC12252EA505232FA03F09B
:10489000704709420BD4102BC4BF0020704703F5AA
:1048A000787CBCF1FF3F05D04FF0FF3070474FF0F0
:1048B0000000704770B500F0DBF800BF499224801B
:1048C00000207047F0E710F0004248BF4042B0FAC5
:1048D00080F310FA03F10AD0C3F11D0303F58063DE
:1048E00002EB03524FEA415002EBD12170474FF0E7
:1048F00000007047B0FA80F310FA03F10AD0C3F158
:104900001D0303F580634FEA03524FEA415002EB67
:10491000D12170474FF000007047000070B5DFF8FC
:1049200048C11CEA111E1EBF1CEA13159EEA0C0F9B
:1049300095EA0C0F00F06F8081EA03044EEAD47E02
:10494000AE4421EA4C1123EA4C1341F4801143F4A4
:104950008013AEF17F7EA1FB024CA0FB03653619EC
:1049600055EB0C05A1FB034C4CF10003A0FB021C12
:1049700016EB0C06654153F10003094218BF46F0DF
:10498000010613F4007F0BD14FEA03314FEA0530E3
:1049900041EA155140EA165034036FF003020AE071
:1049A0004FEAC3214FEAC52041EA555140EA56502B
:1049B000F4026FF0020202EB2E4201EB025585EA8F
:1049C000CE710AD05FEA440C18BF24F0004450F1C5
:1049D000000041F1000120EAD47040F2FE7C624503
:1049E00000D270BDA84214BF4FF080444FF0404445
:1049F000002E08BF0024BEF1806FA8BFA1F1C04106
:104A0000BDE8704080F2828001F1C04101F00041B8
:104A10004FF0000070470CEA13159EEA0C0F18BF08
:104A200095EA0C0F06D081EA030E4FF000000EF05D
:104A3000004170BD00F01CF88900013E00F007B88D
:104A400000F009B84FEA430C5FEA5C5C08D081EAE9
:104A5000030100F05BB84FEA410C5FEA5C5CF6D101
:104A600002494FF0000070470000FF070000F87F88
:104A70000EF1020E2EF0030E5EF8046B364205D4E2
:104A8000012A43EB030515F5001F12D8012841EB5D
:104A9000010C1CF5001F0CD80ED14FEAD17C0CEB99
:104AA0004C0C0CF1020C15F5001F08BF4CEBD37C2D
:104AB00004E04FF0080C01E04FEAD37C0CEB4C050E
:104AC00026FA05F606F00706B6F1040C06D20EEB40
:104AD000860CBDE870404CF0010C6047DFE80CF03C
:104AE000090B02024FF00041A1F500214FF0000038
:104AF00070BD19461046012851EB010418BFD4F5CA
:104B0000001484BF002001F0004170BD0808A0F52A
:104B100000114FEA3101704710B591EA030F48BF09
:104B200083F000433FF578AC841A71EB030C07D295
:104B30008CF0004C121943EB0C03001B61EB0C01D1
:104B40004FEA1154A4EB135CDFF8A4E11EEA430F13
:104B500018BF9EEA445F00F0B48021EA045123EAC2
:104B60006E035242C3EB6E0338BF5B1EDCF1200EB6
:104B700025D322FA0CFE10EB0E0043FA0CFE41EB9B
:104B80000E01CCF1200E03FA0EFE10EB0E00CCF15C
:104B9000200E51F1000129D401EB045112FA0EF25A
:104BA000BDE8104058BF7047401C1CBFB2F1004F19
:104BB000704700280CBF491C20F00100704712EB21
:104BC000020E43EB030218BF4FF0010E4EEA420201
:104BD000ACF1200CDCF11E0E56D943FA0CFE10EBA2
:104BE0000E00CCF11E0E51F1FF31D5D50EF1010EA4
:104BF00012FA0EFE404141EB010101EB445C5FEA19
:104C00005C5C10D901EB045110EBDE7038BFBEF1D3
:104C1000004FBDE8104018BF704700280CBF491C6A
:104C200020F00100704734D24FEAD42C24F4006401
:104C300011F500111BD0B1FA81F20B3AA41AA41E8F
:104C4000D2F12003914030FA03F31943904001EB75
:104C5000CC7101EB0451002CBDE81040A8BF704797
:104C600001F1C04101F000414FF000007047B0FA7F
:104C700080F310FA03F102D1BDE810407047E41A46
:104C8000173C4805C90AE2E701EB0451BDE81040B2
:104C9000704749104FEA300001EB0451BDE8104065
:104CA00002E04FF0000170474A0008BF0042F8D010
:104CB000B2F5001F28BF704701F000414FF000001F
:104CC00070479EEA445F07D011EA5E0FBDE81040CE
:104CD00004BF002100207047BDE8104070B5FFF709
:104CE000C7FE00BF40DFF63E104683F0004170472C
:104CF0000000E0FF41000B0ED3F19E0208D950F4F2
:104D000000034FEA032323FA02F048BF40427047F2
:104D100010B500F0A4F800BF49922480002070472D
:104D20006FF0004282EA20007047000010F000415E
:104D300048BF4042B0FA80F310FA03F2C3F19D037A
:104D40000BD051EAC35101EB1220530638BF704714
:104D500000F1010008BF20F0010070474FF47F0C04
:104D60001CEAD0121EBF1CEAD11392EA0C0F93EA80
:104D70000C0F00F0478090EA010F48BF42F48072A8
:104D80004FF0004C4CEA00204CEA012102EB0302F8
:104D9000A0FB0113A2F50002002918BF43F0010394
:104DA0005B0028BF4FEA330342EB22425FEA132C39
:104DB0004CEBC2502EBFBCEB436FB2F57C0F70477B
:104DC0004FEA036CBCF1004F08BF20F00100B2F5C0
:104DD0007C0F38BF70470BD582F0FF0212F5803F81
:104DE000C8BF704700F1C040D8BF00F00040704716
:104DF00000F5000C5FEA4C0C48BF7047B0F1C040B2
:104E000000F073B80CEAD11390EA010F48BF42F4E6
:104E10008072624538BF634504D280EA010000F029
:104E20000040704710B500F01AF800BF8900013E3D
:104E300000F007B800F009B85FEA410C5FEA1C6CAB
:104E400008D080EA010000F050B85FEA400C5FEA49
:104E50001C6CF6D14FF00040A0F5800070470EF1B9
:104E6000020E2EF0030E5EF8044B244204D44FEAE7
:104E70004102B2F17F4F11D84FEA4003B3F17F4FA7
:104E80000CD80ED14FEAD07C0CEB4C0C0CF1020C80
:104E9000B2F17F4F08BF4CEBD17C04E04FF0080C1F
:104EA00001E04FEAD17C0CEB4C0324FA03F404F04C
:104EB0000704B4F1040C06D20EEB840CBDE81040DC
:104EC0004CF0010C6047DFE80CF0070802024FF0DD
:104ED0000040A0F5800010BD0846420018BFD2F186
:104EE000807288BF00F0004010BDFF2141EAD05021
:104EF000C00570470000000000000000010203042C
:104F00000607080900000000010203041414141429
:104F1000141414141416191C1E1F202123242526D2
:104F200027292C32373C41464B505050505050505E
:104F300050505050505050505050505050500E0201
:104F400030024E0271029602BA02E002040320030C
:104F500048037503AC03E8031F0456048E04CE0413
:104F60000A0546058C05C405F50540067706CA0600
:104F700015077607DA074808B608240960099C096E
:104F8000D809050A440A440A440A440A440A440A5D
:104F9000440A440A440A440A440A440A440A440AA1
:104FA000440A08080807060505040403030303036D
:104FB00003030302010101000000000000000000E3
:104FC00000000000000000000000000000000000E1
:104FD00000000000500050005000500050005000F1
:104FE00050005000500050005A0064006E006400F1
:104FF0005A00500046003C003200320032000000EF
:1050000000000000000000000000000000000000A0
:105010000000000000000000000000000000000090
:105020000000000000000000000000000000000080
:105030000000000000000000BD04CE04E204F604FD
:1050400005050A0514051E05320546055A058C0599
:10505000D7050606310659067C06AE06EA060D0798
:105060003F0742074407460749074E0753075607BD
:105070005D0767078707D70713083E0863088B0893
:10508000B308B308FC083809380938093809380961
:10509000380938093809380938093809141414143A
:1050A00014141414141414141414141414141416BE
:1050B000191C1E1F21232527292B2D32373C414641
:1050C00050505050505050505050505050509C01E3
:1050D000A701B301C101D201DC01EA01F901080213
:1050E0001402230237024B025D0272028602A302FF
:1050F000BE02DA02F60213032F034D036B0389038A
:10510000A803C603E80306042E0456047E04A6047E
:10511000CE04F604210550058005AF05DE05110615
:1051200040067206A406DB061B077F07E307A908F3
:105130001709080808070605050404030505040403
:105140000303030302020201010101000000000049
:10515000000000000000000000000000000000004F
:10516000000000005000500050005000500050005F
:1051700050005000500050005000500050005000AF
:1051800050005A0064006E0064005A00500046004F
:105190003C0032003200000000000000000000006F
:1051A00000000000000000000000000000000000FF
:1051B00000000000000000000000000000000000EF
:1051C0000000000000000000BD04CE04E204F6046C
:1051D00005050A0514051E05320546055A058C0508
:1051E000D7050606310659067C06AE06EA060D0707
:1051F0003F07560761076E077B077C077D077E0721
:10520000800785078A07020820083E0863088B0884
:10521000B308B308FC0838093809380938093809CF
:105220003809380938093809380938092828282858
:10523000282D323C46505A646E78828C969696960B
:1052400096969696969696969696969696A0A0A0E0
:10525000A0A0A0A0B4B4B4B4B4B4B4B4B4B4E101E4
:1052600008021C024E0274029D02C602F8022003CC
:1052700052037C03CA03FC0360048804C004F604E0
:105280003205A005DC0518068606D6061C0776073B
:10529000CC072A088408DE0838099009C409F609F1
:1052A0000A0A230A440A440A440A440A440A440AE9
:1052B000440A440A440A440A440A440A440A440A7E
:1052C000440A1010101010101010101212121210A8
:1052D000100F0E0D0C0B0A08050000000000000066
:1052E00000000000000000000000000000000000BE
:1052F0000000000064006400640078009600B400C0
:10530000C800C800C800C800C800BE00B400AA0099
:10531000A000A000960096008C00820078006E002D
:105320006400000000000000000000000000000019
:10533000000000000000000000000000000000006D
:10534000000000000000000000000000000000005D
:1053500000000000000000002B043F0451045B0427
:1053600065046D04760486049704AE04CC04F4044A
:10537000260592051306650672069006AE06C2065D
:10538000D606E006EA06F40608071C070807FE062C
:10539000F406080741077307D007200866088B0842
:1053A000B308DB080609380938093809380938090B
:1053B00038093809380938093809380928282832BD
:1053C0003232373C4146505A6E828C96969696966B
:1053D00096969696969696969696969696A0A0A04F
:1053E000A0A0A0A0B4B4B4B4B4B4B4B4B4B499019B
:1053F000B101C701DF01F00103021F02440266028E
:105400008102B302E9021A0350038903C803E803C7
:10541000FE031A0431048204A604E2041F055705A2
:105420008D05D50525066C06B70629076D07A20769
:10543000F30741089508950895089508950895087B
:105440009508950895089508950895089508950874
:10545000950806060606060708080809090A0B0C3F
:105460000A080808080606060505000000000000F6
:10547000000000000000000000000000000000002C
:1054800000000000640064006400640064006400C4
:105490006400640064006E006E0078009600C8002E
:1054A000FA00C800C800C800C800C8006400640052
:1054B0006400640000000000000000000000000024
:1054C00000000000000000000000000000000000DC
:1054D00000000000000000000000000000000000CC
:1054E000000000000000000060047B049504B0048C
:1054F000D104E204EC04F6040005140532055A0553
:105500006A059205BA05DC052C0654069006D606F7
:1055100008079E07340834080208E407B207B207F8
:10552000B207B207BC07D0071308480863088B0806
:10553000B308B308FC0838093809380938093809AC
:10554000380938093809380938093809282828322B
:105550003232373C4146505A646E78828C96969629
:1055600096969696969696969696969696969696DB
:10557000969696969696969696969696969699015D
:105580009D01A101A501A901AD01B701C001C9019A
:10559000D201D701EA01F9010A021A0233024702D5
:1055A0005D02710288029B02B202C802DD02F302B0
:1055B0000B03200336034A0361037C039803B603FD
:1055C000CF03E803FC031A04380456047404980457
:1055D000C404EC041405370553056E05D2050E0608
:1055E0007206101010101010101010121210100F60
:1055F0000E0D0C0B0A090808080808060605050523
:10560000000000000000000000000000000000009A
:105610000000000064006400640064006400640032
:105620006400640078009600B400C800DC00040147
:105630000401FA00F000E600DC00D200C800C80057
:10564000C800C800C800640064006400640064000E
:10565000000000000000000000000000000000004A
:10566000000000000000000000000000000000003A
:105670000000000000000000E204E704EC04F10474
:10568000F304F604F904FD04000505050A051A05EE
:105690002E05380546055A056E0582059105A005BB
:1056A000B405D205E6050E062C064A0672067C06EF
:1056B00072067C0686069006E7061C074107A507CA
:1056C000D70713083E0870089808D408F20806099E
:1056D0001A0924092E09380942094C091E1E1E1EEA
:1056E0001E1E1E1E1E1E1E1E1E1F202123242526BA
:1056F00027292C32373C41464B5050505050505087
:105700005050505050505050505050505050160221
:105710003002490262027E02A302D002F802200394
:1057200052037C03B603F20324046004A404F604C9
:1057300028057805B405EE0540069006D6061C0738
:105740007207C60720088408D4081A09C409F60994
:105750000A0A230A440A440A440A440A440A440A34
:10576000440A440A440A440A440A440A440A440AC9
:10577000440A101010101112121111100F0C090808
:1057800007070707070605050300000000000000E3
:105790000000000000000000000000000000000009
:1057A0000000000064006400640078009600B4000B
:1057B000B400B400B400A000960078006E0064004D
:1057C00064006400640064005A005A0050005000F5
:1057D0003200000000000000000000000000000097
:1057E00000000000000000000000000000000000B9
:1057F00000000000000000000000000000000000A9
:105800000000000000000000E803F20372048304BB
:1058100088042E043804420465048D04A404C404DE
:10582000DD04F4040F053C055A05AA05D205DC0584
:10583000E605F005FA050E06360668067C069006B3
:10584000AE06D6063A07E10713083E0863088B0840
:10585000B308DB0806093809380938093809380956
:105860003809380938093809380938091E1E1E1E3A
:105870001E1E1E1E1E1E1E1E1E1E1E1E1E1E23263B
:10588000292D32373C4650505050505050505050B7
:105890005050505050505050505050505050860121
:1058A0009901B101C701DF01F00103021F024402A7
:1058B00066028102B302E9021A03500370039803DF
:1058C000C003E8030604100424048204A604E204CE
:1058D0001F054D0578059105AA05D50525065E0627
:1058E000A406D60612074E079E0743089508AD0882
:1058F000D1080309350967099909CB09FD092F0A60
:10590000610A101010101010101010121210100C4C
:105910000A09090808070706060503000000000039
:105920000000000000000000000000000000000077
:10593000000000006400640064006400640064000F
:105940006400640078009600B400C800DC00DC004D
:10595000DC00DC00C800B400A00096008C008200CF
:1059600078006E00640000000000000000000000ED
:105970000000000000000000000000000000000027
:105980000000000000000000000000000000000017
:1059900000000000000000009F03B103B903D4031E
:1059A000FC031A04240438044C0460046A047E04D2
:1059B0009204A604BA04CE04F6040A051E053205B4
:1059C00046058C05C805DC05FA0533068606C206C1
:1059D000FE063A078007D00713082A0866089808C9
:1059E000CA08F2081009380938093809380938098D
:1059F0003809380938093809380938090000000021
:105A00000000000000000000000000000000000096
:105A10000000000000000000000000000000000086
:105A20000000000000000000000000000000000076
:105A30000000000000000000000000000000000066
:105A40000000000000000000000000000000000056
:105A50000000000000000000000000000000000046
:105A60000000000000000000000000000000000036
:105A70000000000000000000000000000000000026
:105A80000000000000000000000000000000000016
:105A90000000000000000000000000000000000006
:105AA00000000000000000000000000000000000F6
:105AB00000000000000000000000000000000000E6
:105AC00000000000000000000000000000000000D6
:105AD00000000000000000000000000000000000C6
